:020000040800F2
:10000000380C002035050008390300083B030008C0
:100010003F030008430300084703000800000000F6
:100020000000000000000000000000004B0300087A
:100030004D030008000000004F03000851030008B2
:100040004F0500084F0500084F0500084F05000840
:100050004F0500084F0500084F0500084F05000830
:100060004F0500084F0500084F0500084F05000820
:100070004F0500084F0500084F0500084F05000810
:100080004F0500084F0500084F0500084F05000800
:100090004F0500084F0500084F0500084F050008F0
:1000A0004F0500084F0500084F0500084F050008E0
:1000B0004F050008792A00084F0500084F05000881
:1000C0004F0500084F0500084F0500084F050008C0
:1000D0004F050008C12500084F0500084F0500081E
:1000E0004F0500084F0500084F0500084F050008A0
:1000F0004F0500084F0500084F0500084F05000890
:100100004F0500084F0500084F0500084F0500087F
:100110004F050008A32700084F0500084F050008F9
:100120004F0500084F0500084F0500084F0500085F
:1001300000F002F800F05EF80AA090E8000C82449B
:100140008344AAF10107DA4501D100F053F8AFF278
:10015000090EBAE80F0013F0010F18BFFB1A43F0A5
:1001600001031847AC390000CC39000010F8013BFE
:100170000A4413F0030408BF10F8014B1D1108BF17
:1001800010F8015B641E05D010F8016B641E01F8C5
:10019000016BF9D1002D15D010F8014B03F00C03C1
:1001A0000C2BA1EB04040ABF10F8013BA4EB831451
:1001B000A4EB032405F1010314F8016B5B1E01F8A5
:1001C000016BF9D5914238BF10F8013BD1D370478C
:1001D0000023002400250026103A28BF78C1FBD850
:1001E000520728BF30C148BF0B6070471FB51FBD05
:1001F00010B510BD03F065F91146FFF7F7FF00F0E9
:1002000009F803F083F903B4FFF7F2FF03BC03F02E
:1002100087F9000008B5002440A00068009002F0B3
:10022000D1F84FF4E13002F037F94FF4E13002F049
:1002300039FA02F035FC02F025FB6EE002F0C1FD58
:10024000044634B18DF8014003226946012002F0D2
:100250006FF9012003F07DF83149087800EBD07187
:100260004910A0EB4101002957D12D48007840F0FA
:1002700001002B490870084600780121B1EBE00F1E
:1002800029D1284802F007FE2748007880B927487E
:10029000007830B90C2003F04FF801202349087092
:1002A00019E00D2003F048F800202049087012E002
:1002B0001E48007830B9012003F03EF801201B49A8
:1002C000087005E0022003F037F800201749087095
:1002D000002015490870124800780121B1EBA00FE9
:1002E0000FD1104890F8A202B1EB201F09D10120D4
:1002F0000F4908700B4991F8A2121931C8B203F0E6
:100300001BF80C4800780121B1EB600F05D10548BE
:1003100002F039FF0120064908708FE77E62FE0077
:100320009401002014030020100300200F0300207C
:100330006001002095010020704700BFFEE700BF6C
:10034000FEE700BFFEE700BFFEE77047704770475B
:10035000704700000CB50020019000906C480068C8
:1003600040F480306A49086000BF6948006800F4C2
:10037000003000900198401C0190009818B9019835
:10038000B0F5A06FF1D16248006800F4003010B100
:100390000120009001E0002000900098012843D146
:1003A0005C48006840F010005A4908600846006840
:1003B00020F0030008600846006840F00200086072
:1003C00053484068524948600846406848600846BB
:1003D000406840F4806048600846406820F47C1023
:1003E00048600846406840F4E810486008460068E5
:1003F00040F08070086000BF4548006800F0007061
:100400000028F9D04248406820F003004049486085
:100410000846406840F00200486000BF3C48406821
:1004200000F00C000828F9D10CBD10B5FFF792FFC1
:1004300010BD10B53648006840F00100344908602E
:100440000846406834490840314948600846006819
:10045000324908402E4908600846006820F4802090
:1004600008600846406820F4FE0048604FF41F0012
:100470008860FFF7DAFF4FF000602949086010BD7F
:1004800010B5002100200022214B5B6803F00C0115
:1004900021B1042906D0082928D107E0214B224C9C
:1004A000236027E01F4B204C236023E0184B5B6840
:1004B00003F47010164B5B6803F48032022303EBE5
:1004C000904022B9194B4343174C23600DE0104B69
:1004D0005B6803F4003323B1144B4343124C236095
:1004E00003E0104B4343104C236003E00D4B0E4CD4
:1004F000236000BF00BF064B5B68C3F303130C4CC3
:10050000E15C094B1B68CB40074C236010BD000029
:1005100000100240002002400000FFF8FFFFF6FE3E
:1005200008ED00E000127A006401002000093D009F
:10053000680100200948804709480047FEE7FEE7B8
:10054000FEE7FEE7FEE7FEE7FEE7FEE7FEE7FEE783
:1005500004480549054A064B70470000330400086B
:100560003101000838060020380C0020380800202F
:100570003808002031490143314A1160704770B595
:10058000002100230F22C47804B32D4C246804F406
:10059000E064C4F5E064210AC1F10403CA40447870
:1005A00004FA03F18478144021430901254C0678AC
:1005B000A155047804F01F050124AC4005786D11A5
:1005C000AD0005F1E025C5F8004109E0047804F02C
:1005D0001F050124AC401C4D0678761145F82640D5
:1005E00070BD1A4A0A400243154B1B1F1A60704720
:1005F00039B1134A121D12680243114B1B1D1A60B8
:1006000006E00F4A121D126882430D4B1B1D1A6033
:100610007047042808D14FF0E021096941F0040136
:100620004FF0E022116107E04FF0E021096921F06D
:1006300004014FF0E0221161704700000000FA054C
:100640000CED00E000E400E080E100E080FFFF1F2F
:1006500010B50446FA48844208D10121401500F043
:1006600055FD0021601500F051FD17E0F54884426A
:1006700008D10121001500F049FD0021201500F0EE
:1006800045FD0BE0F048844208D10121C80300F089
:100690003DFD00214FF4004000F038FD10BD30B5A5
:1006A0000246002000235068E84C20400D790C6879
:1006B00044EA0524204350609068E54C2040D1E98D
:1006C00002542C434D7944EA450420439060D06A9B
:1006D00020F470000C7C641EE4B2234340EA035013
:1006E000D06230BD00210160017141718160C16043
:1006F00001210174704721B1826842F001028260D9
:1007000003E0826822F001028260704721B18268B2
:1007100042F48072826003E0826822F48072826018
:10072000704710B50023CBB21AB144681C43446033
:1007300002E044689C43446010BD816841F00801B8
:1007400081607047014600208A6802F008020AB101
:10075000012000E000207047816841F004018160C1
:100760007047014600208A6802F004020AB10120A5
:1007700000E00020704721B1826842F4A00282604C
:1007800003E0826822F4A0028260704701460020E4
:100790008A6802F480020AB1012000E0002070475C
:1007A00010B50A4600210023416821F46041531E20
:1007B00041EA4331416010BD21B1426842F4006218
:1007C000426003E0426822F4006242607047F0B584
:1007D00004460D4600200021092D11DDE068A5F139
:1007E0000A0606EB4607072606FA07F18843A5F135
:1007F0000A0606EB460603FA06F10843E0600CE041
:10080000206905EB4507072606FA07F1884305EB43
:10081000450603FA06F108432061072A0FDA606BE8
:10082000561E06EB86071F2606FA07F18843561E5A
:1008300006EB860605FA06F10843606322E00D2AFE
:100840000FDA206BD61F06EB86071F2606FA07F184
:100850008843D61F06EB860605FA06F10843206397
:1008600010E0E06AA2F10D0606EB86071F2606FAE5
:1008700007F18843A2F10D0606EB860605FA06F19C
:100880000843E062F0BD21B1826842F480128260C8
:1008900003E0826822F48012826070470146C86CCF
:1008A00080B2704766484C300068704721B142689A
:1008B00042F48062426003E0426822F48062426057
:1008C000704721B1426842F48052426003E04268BE
:1008D00022F48052426070470A460021816821F468
:1008E000E04111438160704721B1826842F40042C7
:1008F000826003E0826822F400428260704721B186
:10090000826842F40212826003E0826822F40212DA
:1009100082607047014600208A6802F400120AB122
:10092000012000E000207047F0B504461546002085
:1009300000220026092911DDE068A1F10A0707EB72
:10094000470C072707FA0CF29043A1F10A0707EBBF
:10095000470703FA07F21043E0600CE0206901EB5F
:10096000410C072707FA0CF2904301EB410703FA09
:1009700007F210432061A06BC0F30156EF1C06F193
:10098000010CA7EB0C0707EB870C1F2707FA0CF2EB
:100990009043EF1C06F1010CA7EB0C0707EB870750
:1009A00001FA07F21043A063F0BD10B50A4600211A
:1009B0000023816B21F44011531E41EA03518163EE
:1009C00010BD08B5002300930090009B0B440093DA
:1009D000009B1A6008BD08B50246002000900092F6
:1009E00001F12800009B184400900098006880B234
:1009F00008BD0A4600214168164B19401143416069
:100A000070474162826270470A460021416821F0C6
:100A10001F0111434160704740B10949083109681D
:100A200041F40001064A0832116007E00449083128
:100A3000096821F40001024A083211607047000081
:100A40000024014000280140003C0140FFFEF0FF6F
:100A5000FDF7F1FFFFFD3FFF0246002013680B404A
:100A60000BB1012000E000207047CA4302607047CC
:100A700070B502460020002300240B125568CEB248
:100A800005EA060415681D4015B10CB1012000E00F
:100A9000002070BD00220A12D3430360704700009B
:100AA00010B50446CC48844208D10121042000F04E
:100AB0002DFB0021042000F029FB46E0C7488442BA
:100AC00008D10121082000F021FB0021082000F0BE
:100AD0001DFB3AE0C248844208D10121102000F0F9
:100AE00015FB0021102000F011FB2EE0BD488442D0
:100AF00008D10121202000F009FB0021202000F076
:100B000005FB22E0B848844208D10121402000F0D2
:100B1000FDFA0021402000F0F9FA16E0B3488442C3
:100B200008D10121802000F0F1FA0021802000F09E
:100B3000EDFA0AE0AE48844207D10121801500F0A9
:100B4000E5FA0021A01500F0E1FA10BD10B5012171
:100B5000084600F0DBFA0021012000F0D7FA10BDB2
:100B60002DE9F04102460025002600200023002444
:100B7000002791F803C00CF00F0591F803C00CF0AA
:100B8000100CBCF1000F03D091F802C04CEA05052F
:100B900091F800C0BCF1000F31D0146800202BE0A8
:100BA0004FF0010C0CFA00F3B1F800C00CEA030698
:100BB0009E4220D183004FF00F0C0CFA03F7BC4388
:100BC00005FA03FC4CEA040491F803C0BCF1280FB9
:100BD00006D14FF0010C0CFA00FCC2F814C00AE078
:100BE00091F803C0BCF1480F05D14FF0010C0CFA8D
:100BF00000FCC2F810C0401C0828D1D31460B1F822
:100C000000C0BCF1FF0F34DD546800202EE000F17D
:100C1000080C4FF0010808FA0CF3B1F800C00CEA18
:100C200003069E4221D183004FF00F0C0CFA03F70C
:100C3000BC4305FA03FC4CEA040491F803C0BCF180
:100C4000280F05D100F1080C08FA0CF8C2F814803E
:100C500091F803C0BCF1480F07D100F1080C4FF028
:100C6000010808FA0CF8C2F81080401C0828CED3FE
:100C70005460BDE8F0814FF6FF7101800221817060
:100C80000421C17070470246002093680B400BB1ED
:100C9000012000E0002070470146886880B270475C
:100CA00002460020D3680B400BB1012000E0002079
:100CB00070470146C86880B2704701617047416162
:100CC00070470AB1016100E041617047C16070473F
:100CD0004FF480320A438261816182618269826954
:100CE000704702460020434B18684FF68073184047
:100CF00040EA021008433F4B186070473E49C86104
:100D00007047F0B50A46002300240021002500F0BA
:100D10000046B6F1004F02D1364EF16901E0354E82
:100D20007168C0F3034583B200F44016B6F5401F66
:100D300008D121F070612F4E766826F070662D4F35
:100D40007E6012E000F48016B6F5801F06D10326FF
:100D500006FA05F4A14341F0706106E0460D360144
:100D600003FA06F6B14341F0706122B1460D360137
:100D700003FA06F6314300F00046B6F1004F02D107
:100D80001C4EF16101E01B4E7160F0BD30B50022D8
:100D90008B071C0F0F2303FA04F2164B08338C1039
:100DA00053F824309343134C08348D1044F8253005
:100DB00023468C1053F824308C07240F00FA04F4D7
:100DC00023430C4C08348D1044F8253030BD0A49BB
:100DD000DC3108607047000000080140000C014051
:100DE000001001400014014000180140001C0140A7
:100DF000002001400000014000002042DF48006860
:100E000040F00100DD49086008464068DC490840C0
:100E1000DA49486008460068DA490840D74908605E
:100E20000846006820F4802008600846406820F4E6
:100E3000FE0048604FF41F0088607047CF49096882
:100E400021F48031CD4A11601146096821F48021D6
:100E50001160B0F5803F03D0B0F5802F0ED106E0D1
:100E6000C649096841F48031C44A116007E0C349AA
:100E7000096841F4A021C14A116000E000BF00BF31
:100E8000704710B501460022002300204A11012AB4
:100E900002D1BA4C236806E0022A02D1B74C236A79
:100EA00001E0B64C636A01F01F02012494401C402B
:100EB0000CB1012000E0002010BD38B500200090EA
:100EC0000024002500BF3120FFF7DBFF0546009816
:100ED000401C00900098B0F5A06F01D0002DF2D01A
:100EE0003120FFF7CEFF08B1012400E000242046A6
:100EF00038BD01460020A14A106820F0F80040EA01
:100F0000C10010607047A049086070470246002089
:100F10009A4B586820F47C1042EA01031843974B1F
:100F20005860704798490866704701460020934A08
:100F3000506820F003000843506070478F484068B5
:100F400000F00C007047014600208C4A506820F0E9
:100F5000F00008435060704701460020874A5068FF
:100F600020F4E06008435060704701460020834A47
:100F7000506820F4605040EAC1005060704729B1C9
:100F80007E4A527A02437D4B5A7204E07B4A527A7F
:100F900082437A4B5A7270477B49D8310860704758
:100FA00001460020754A506820F4404008435060D4
:100FB00070470021714A20321170704A82F8201067
:100FC000012802D004280AD104E001216B4A203212
:100FD000117005E00521694A2032117000E000BF60
:100FE00000BF70476949086070476449096A014356
:100FF000624A11627047654944390860704730B5EC
:1010000000210022002400235C4D6D6805F00C01D6
:1010100021B1042905D0082923D105E05C4D0560E4
:1010200022E05B4D05601FE0544D6D6805F47012C1
:10103000524D6D6805F48034022505EB92421CB9CF
:10104000544D554305600BE04C4D6D6805F400357B
:101050001DB1504D5543056002E04D4D55430560AF
:1010600002E04B4D056000BF00BF444D6D6805F0C8
:10107000F0010909484D6B5C0568DD4045603F4D56
:101080006D6805F4E061090A434D6B5C4568DD401D
:1010900085603A4D6D6805F46051C90A3E4D6B5C40
:1010A0004568DD40C560354D6D6805F44041890BEC
:1010B0003A4D6B5CC568B5FBF3F5056130BD29B1F0
:1010C0002E4A526902432D4B5A6104E02B4A526961
:1010D00082432A4B5A61704729B1284A92690243D8
:1010E000264B9A6104E0254A92698243234B9A6118
:1010F000704729B1214AD2690243204BDA6104E0EA
:101100001E4AD26982431D4BDA61704729B11B4ADE
:10111000D2680243194BDA6004E0184AD26882436D
:10112000164BDA60704729B1144A12690243134B17
:101130001A6104E0114A12698243104B1A61704728
:1011400012494039086070470F49C86470470B491D
:10115000C87170470948406A40F08070074948628A
:10116000704701460020054A92680A400AB10120F2
:1011700000E000207047014988727047001002406B
:101180000000FFF8FFFFF6FE0000424280044242EA
:1011900000127A0000093D0078010020880100203B
:1011A00010B50446FE48844208D10121C014FFF75F
:1011B000ADFF0021E014FFF7A9FFC4E0B4F1804FB8
:1011C00008D101210846FFF7AEFF00210120FFF7FB
:1011D000AAFFB8E0F348844208D101210220FFF7BA
:1011E000A2FF00210220FFF79EFFACE0EE48844200
:1011F00008D101210420FFF796FF00210420FFF70A
:1012000092FFA0E0E948844208D101210820FFF7BD
:101210008AFF00210820FFF786FF94E0E44884421B
:1012200008D101211020FFF77EFF00211020FFF7D9
:101230007AFF88E0DF48844208D101212020FFF7AF
:1012400072FF00212020FFF76EFF7CE0DA48844225
:1012500008D101214014FFF759FF00216014FFF766
:1012600055FF70E0D548844209D10121C804FFF739
:101270004DFF00214FF40020FFF748FF63E0D04806
:10128000844209D101210805FFF740FF00214FF4F6
:101290008010FFF73BFF56E0CA48844209D1012184
:1012A0004805FFF733FF00214FF40010FFF72EFF32
:1012B00049E0C548844208D101214020FFF733FFAF
:1012C00000214020FFF72FFF3DE0C048844208D1B5
:1012D00001218020FFF727FF00218020FFF723FF57
:1012E00031E0BB48844208D101218015FFF71BFF84
:1012F0000021A015FFF717FF25E0B648844209D169
:1013000001210804FFF702FF00214FF48030FFF7AE
:10131000FDFE18E0B048844209D101214804FFF7DE
:10132000F5FE00214FF40030FFF7F0FE0BE0AB4874
:10133000844208D101218804FFF7E8FE00214FF420
:101340008020FFF7E3FE10BD00220288944B9842F4
:101350000ED0994B98420BD0B0F1804F08D0914BF2
:10136000984205D0904B984202D0904B984204D1BD
:101370004FF68F731A404B881A438D4B984207D013
:101380008C4B984204D04FF6FF431A40CB881A4347
:1013900002808B8883850B880385814B98420BD014
:1013A000854B984208D08B4B984205D08A4B984287
:1013B00002D08A4B984201D10B7A038601238382A3
:1013C000704770B5002400220023058C4FF6FE768E
:1013D00035400584028C8388048B4FF68F752C4032
:1013E000B51E2C400D882C43751E2A400D892A43BA
:1013F0004D882A436A4DA8420BD06F4DA84208D0B1
:10140000744DA84205D0744DA84202D0734DA84235
:1014100013D14FF6F7752A404D892A434FF6FB75D5
:101420002A408D882A434FF6FF652B404FF6FF5523
:101430002B408D892B43CD892B4383800483CD881A
:101440008586028470BD70B5002400220023058CBF
:101450004FF6EF7635400584028C8388048B48F67E
:10146000FF752C404FF6FF452C400D884FF6FF7658
:1014700006EA05252C434FF6DF752A400D8906EA5A
:1014800005152A434D8806EA05152A43444DA8420E
:1014900002D0494DA8421DD14FF67F752A404D8993
:1014A0004FF6FF7606EA05152A434FF6BF752A4028
:1014B0008D8806EA05152A434FF6FF352B404FF27B
:1014C000FF752B408D8906EA85052B43CD8906EAF9
:1014D00085052B4383800483CD880587028470BDF6
:1014E00070B5002400220023058C4FF6FF663540BE
:1014F0000584028C8388848B4FF68F752C404FF6C1
:10150000FC752C400D882C434FF6FF552A400D8961
:101510004FF6FF7606EA05252A434D8806EA05259B
:101520002A431F4DA84202D0234DA8421DD14FF29D
:10153000FF752A404D894FF6FF7606EA05252A43B6
:101540004FF6FF352A408D8806EA05252A434EF6D8
:10155000FF752B404DF6FF752B408D8906EA05156A
:101560002B43CD8906EA05152B4383808483CD88E0
:101570008587028470BD70B5002200230024058C8D
:101580004EF6FF7635400584038C8488828B48F6BE
:10159000FF752A404FF6FF452A400D8820E00000E5
:1015A000002C01400004004000080040000C0040F6
:1015B000001000400014004000340140004C014085
:1015C000005001400054014000180040001C004041
:1015D000002000400040014000440140004801401C
:1015E0004FF6FF7606EA05252A434DF6FF752B4098
:1015F0000D8906EA05352B434D8806EA05352B4350
:10160000FA4DA84202D0FA4DA84208D14BF6FF7518
:101610002C408D894FF6FF7606EA85152C43848091
:101620008283CD88A0F84050038470BD828B4FF236
:10163000FF331A408283828B4FF6FF7303EA012344
:101640001A4382837047F0B50C46154600220021EC
:101650000026078C4EF6FF7C07EA0C070784828B76
:10166000018C4FF6FF7707EA043640F6FF473A4011
:101670004FF6FF7707EA05273A434FF6FF7707EA69
:1016800003373A43D94FB8420ED0D94FB8420BD0A6
:10169000B0F1804F08D0D74FB84205D0D64FB842EE
:1016A00002D0D64FB84206D14DF6FF77394046F406
:1016B0008057394305E047F6FF57394044F48057D7
:1016C000394382830184F0BD828B4FF6F3731A4055
:1016D0008283828B0A4382837047F0B50C4615469D
:1016E000002200210026078C4FF6FF6C07EA0C074A
:1016F0000784828B018C4FF6FF7707EA04264FF6AA
:101700000C773A404FF6FF7707EA03172F433A4327
:10171000B64FB8420ED0B64FB8420BD0B0F1804FA2
:1017200008D0B44FB84205D0B34FB84202D0B34F3F
:10173000B84206D14FF6FF57394046F48077394317
:1017400005E04FF2FF57394044F4807739438283F4
:101750000184F0BD028B4FF2FF331A400283028BEB
:101760004FF6FF7303EA01231A4302837047F0B573
:101770000C461546002200210026078C4FF6EF7C10
:1017800007EA0C070784028B018C4FF6FF7707EA04
:10179000041640F6FF473A404FF6FF7707EA033753
:1017A0003A434FF6FF7707EA05273A438F4FB8428F
:1017B0000ED08F4FB8420BD0B0F1804F08D08D4F74
:1017C000B84205D08C4FB84202D08C4FB84206D1F7
:1017D0004FF6DF77394046F01007394305E04FF602
:1017E0005F77394044F01007394302830184F0BD2C
:1017F000028B4FF6F3731A400283028B0A43028373
:101800007047F0B50C46154600220021068C4FF6B5
:10181000FE773E400684028B018C4FF60C763240F8
:101820007E1C06EA03162E433243704EB0420ED0A1
:101830006F4EB0420BD0B0F1804F08D06D4EB04229
:1018400005D06D4EB04202D06C4EB04206D14FF67C
:10185000FD76314044F00106314305E04FF6F57660
:10186000314044F00106314302830184F0BD70B57C
:1018700005460C465D4885420ED05D4885420BD03A
:10188000B5F1804F08D05B48854205D05A48854263
:1018900002D05A48854200D100E000BF208850B9EC
:1018A0002389A28861882846FFF7ABFFE188284694
:1018B000FFF79EFF25E0208804280AD12389A2880B
:1018C00061882846FFF753FFE1882846FFF742FF6B
:1018D00017E0208808280AD12389A2886188284631
:1018E000FFF7FBFEE1882846FFF7EEFE09E02389BB
:1018F000A28861882846FFF7A6FEE1882846FFF700
:1019000095FE70BD2DE9F04105460C4600260127E5
:10191000608808B9022600E00026A088012801D1CD
:10192000022700E001272088A0B92389A2886188C6
:101930002846FFF766FFE1882846FFF759FF23890D
:101940003A4631462846FFF712FFE1882846FFF75E
:1019500001FF13E02389A28861882846FFF707FF6B
:10196000E1882846FFF7F6FE23893A4631462846A5
:10197000FFF747FFE1882846FFF73AFFBDE8F0810F
:101980000A884B881A438B881A43CB881A430B89E1
:101990001A434B891A438B891A43A0F84420704795
:1019A0004FF6FF71818000210180C180418001726A
:1019B00070470021018041808180C1800181418187
:1019C0008181C18170470021018041800121818096
:1019D0000021C18001817047002101804180818008
:1019E000C18001814181818170470000002C01404C
:1019F000003401400004004000080040000C00409A
:101A000021B1028842F00102028004E002884FF610
:101A1000FE731A400280704731B1B0F8442042F49E
:101A20000042A0F8442005E0B0F84420C2F30E02C2
:101A3000A0F8442070471AB183890B43838102E0E8
:101A400083898B43838170478182704741EA020317
:101A5000A0F8483070471AB183890B43838102E0B4
:101A600083898B438381704701894FF6F872114057
:101A7000018170470A46002101894FF68F73194092
:101A800011430181704730B504460D462946204672
:101A9000FFF7F0FF208940F00700208130BD2DE9DD
:101AA000F04104460D4616461F46602D06D13B46C2
:101AB000012231462046FFF75AFE05E03B4601224F
:101AC00031462046FFF79DFE29462046FFF7D2FF0C
:101AD000208940F007002081BDE8F08130B50C4638
:101AE00000210189C9B24FF6FF7505EA03251543A8
:101AF00025432943018130BD2DE9F04105460E46BD
:101B000017469846002443463A4631462846FFF792
:101B1000E5FF2C894FF6F870044044F007044FF6B7
:101B20008F70044044F070042C81BDE8F081F0B562
:101B300004460D4616461F463B4632462946204679
:101B4000FFF7CCFF208940F480402081F0BD018563
:101B5000828270470A46002101884FF68F73194030
:101B6000114301807047F0B50C4615461E46002112
:101B7000002200230189028B038C4FF6F87739404D
:101B800021434FF6FC473A4040F201173A434FF6E3
:101B9000DD773B404FF6FF7707EA06172F433B43BD
:101BA000018102830384F0BD0A460021018B4FF6B8
:101BB0008F7319401143018370470A460021018B3E
:101BC00048F6FF7319404FF6FF7303EA02231943E7
:101BD000018370470A460021818B4FF68F731940AD
:101BE0001143818370470A460021818B48F6FF73B9
:101BF00019404FF6FF7303EA0223194381837047AC
:101C000021B1028842F08002028004E002884FF68F
:101C10007F731A400280704721B1828842F004022B
:101C2000828004E082884FF6FB731A4082807047FE
:101C300021B1828842F00802828004E082884FF657
:101C4000F7731A408280704721B1828842F0010206
:101C5000828004E082884FF6FE731A4082807047CB
:101C60000A460021018B4FF6F77319401143018397
:101C700070470A460021018B4FF2FF7319404FF65F
:101C8000FF7303EA02231943018370470A460021C8
:101C9000818B4FF6F77319401143818370470A46D1
:101CA0000021818B4FF2FF7319404FF6FF7303EA57
:101CB00002231943818370470A460021018B4FF6A6
:101CC000FB7319401143018370470A460021018BC1
:101CD0004FF6FF3319404FF6FF7303EA022319430F
:101CE000018370470A460021818B4FF6FB73194030
:101CF0001143818370470A460021818B4FF6FF33E1
:101D000019404FF6FF7303EA02231943818370479A
:101D10000A460021018B4FF67F731940114301835E
:101D200070470A460021018BC1F30E014FF6FF7385
:101D300003EA02231943018370470A460021818B7D
:101D40004FF67F7319401143818370470A46002183
:101D5000818BC1F30E014FF6FF7303EA022319438F
:101D6000818370470A460021018C4FF6FD731940AC
:101D70001143018470470A460021018C4FF6F77326
:101D800019401143018470470A460021018C4FF627
:101D9000DF7319404FF6FF7303EA021319430184FE
:101DA00070470A460021018C4FF67F7319404FF6A9
:101DB000FF7303EA02131943018470470A460021A6
:101DC000018C4FF6FF5319404FF6FF7303EA0223CD
:101DD0001943018470470A460021018C4FF2FF73BA
:101DE00019404FF6FF7303EA022319430184704739
:101DF0000A460021018C4DF6FF7319404FF6FF7320
:101E000003EA023319430184704730B500230124EB
:101E10008C40A3B2048C9C430484048C02FA01F528
:101E2000ADB22C43048430BD30B5002304248C4073
:101E3000A3B2048C9C430484048C02FA01F5ADB275
:101E40002C43048430BD70B503460020002418469E
:101E5000183001258D40ACB21D8CA5431D8409B1FD
:101E6000082909D100EB6100056825F070050560BF
:101E70000568154305600EE00D1FC5F34E052844A7
:101E8000056825F4E045056005684FF6FF7606EA2B
:101E900002263543056070BD21B1028842F002027E
:101EA000028004E002884FF6FD731A4002807047FA
:101EB00021B1028842F00402028004E002884FF659
:101EC000FB731A400280704721B1828842F0800281
:101ED000828004E082884FF67F731A4082807047C8
:101EE00002884FF6F7731A40028002880A43028084
:101EF000704782884FF68F731A40828082880A4327
:101F00008280704702894FF6F8731A400281028975
:101F10000A430281704702894FF67F731A4002819B
:101F200002890A4302817047818470478185704726
:101F3000818670470187704781877047A0F84010FD
:101F4000704702884FF6FF431A40028002880A4316
:101F5000028070470146888E70470146088F70479F
:101F60000146888F70470146B1F84000704701462E
:101F7000888C70470146088D704702460020138AFE
:101F80000B400BB1012000E000207047CA430282E1
:101F9000704730B50246002000230024158A05EA68
:101FA0000103958905EA010413B10CB1012000E099
:101FB000002030BDCA4302827047000010B50446BD
:101FC000FB48844209D101218803FFF79FF80021D3
:101FD0004FF48040FFF79AF832E0F648844209D186
:101FE00001214804FFF79FF800214FF40030FFF76C
:101FF0009AF825E0F048844209D101218804FFF7CE
:1020000092F800214FF48020FFF78DF818E0EB489C
:10201000844209D10121C804FFF785F800214FF45B
:102020000020FFF780F80BE0E548844208D1012149
:102030000805FFF778F800214FF48010FFF773F8D8
:1020400010BD2DE9F04786B005460E460024A24695
:1020500000BFA1460027B08900B100BF2F462C8ADF
:102060004CF6FF700440F08804432C82AC894EF695
:10207000F3100440B0883189084371890843044350
:10208000AC81AC8A4FF6FF400440B0890443AC8277
:1020900001A8FEF7B4FFC648874202D1DDF810A0C0
:1020A00001E0DDF80CA0A88900F4004040B10AEB83
:1020B000CA0000EB0A1031684900B0FBF1F807E0F4
:1020C0000AEBCA0000EB0A1031688900B0FBF1F896
:1020D0006420B8FBF0F004012009642101FB1089A1
:1020E000A88900F4004040B1322000EBC900B0FBE9
:1020F000F1F000F00700044308E0322000EB091083
:102100006421B0FBF1F000F00F0004432C8106B015
:10211000BDE8F0874FF41651016000218180C18035
:1021200001810C21418100218181704710B5024657
:102130000020108A4FF2FF0318400B884C8823437D
:102140008C882343CC8823431843108210BD002180
:10215000018041808180C180704721B1828942F431
:102160000052828104E082894DF6FF731A40828119
:102170007047F0B50346002400260025002040F6F5
:102180006A17B94200D100BF1846C1F3421401F0EA
:102190001F06012707FA06F5012C01D10C3004E0D7
:1021A000022C01D1103000E014301AB107682F431F
:1021B000076002E00768AF430760F0BD1AB1838A89
:1021C0000B43838202E0838A8B4383827047028AB7
:1021D0004FF6F0731A400282028A0A430282704765
:1021E00082894FF2FF731A40828182890A43828179
:1021F000704721B1828942F00202828104E0828923
:102200004FF6FD731A4082817047028A4FF6DF73E2
:102210001A400282028A0A430282704721B1028A6E
:1022200042F48042028204E0028A4BF6FF731A40B5
:1022300002827047C1F30802828070470146888895
:10224000C0F308007047818941F001018181704726
:10225000028BD2B20283028B42EA012202837047D0
:10226000028B02F47F420283028B0A43028370478F
:1022700021B1828A42F02002828204E0828A4FF6F3
:10228000DF731A408282704721B1828A42F01002C5
:10229000828204E0828A4FF6EF731A40828270478E
:1022A00021B1828A42F00802828204E0828A4FF6DB
:1022B000F7731A408282704721B1828942F400424A
:1022C000828103E08289C2F30E028281704721B1CC
:1022D000828A42F40062828204E0828A4FF2FF73B3
:1022E0001A4082827047828A4FF6FB731A408282BC
:1022F000828A0A438282704721B1828A42F00202B6
:10230000828204E0828A4FF6FD731A40828270470F
:1023100002460020B1F5007F00D100BF13880B40BA
:102320000BB1012000E00020704701F40072B2F50B
:10233000007F00D100BFCA430280704770B50246DB
:10234000002400230025002040F66A16B14200D187
:1023500000BFC1F3421501F01F03012606FA03F383
:10236000012D02D19689334006E0022D02D1168A52
:10237000334001E0968A33400C12012606FA04F439
:102380001688344013B10CB1012000E0002070BD6C
:1023900010B50022002340F66A14A14200D100BF0C
:1023A0000A1201249440A3B2DC43048010BD000053
:1023B000003801400044004000480040004C00400C
:1023C0000050004010B56FF00400FEF722F92E48CF
:1023D00000682E49B0FBF1F02D49087008460078DE
:1023E00000EB4001C1EBC0104FF6FF7101EAC000E5
:1023F0002849088010BD0146254A12784A434FF00B
:10240000E0235A6100229A611A46126942F00102E1
:102410001A6100BF4FF0E022106900F001021AB10A
:1024200000F48032002AF5D04FF0E022126922F049
:1024300001024FF0E0231A6100229A6170470146C1
:10244000144A12884A434FF0E0235A6100229A61ED
:102450001A46126942F001021A6100BF4FF0E022F1
:10246000106900F001021AB100F48032002AF5D0A0
:102470004FF0E022126922F001024FF0E0231A61CE
:1024800000229A61704700006401002000127A0067
:102490008C0100208E01002010B586B00446012179
:1024A00044F20400FEF718FE4FF40070ADF814007B
:1024B00003208DF8160018208DF8170005A967482D
:1024C000FEF74EFB4FF48060ADF8140004208DF849
:1024D000170005A96148FEF743FB25208DF8000091
:1024E00003208DF801008DF8020001208DF8030013
:1024F0006846FEF744F801940020ADF80800ADF8F6
:102500000A00ADF80C00ADF810000C20ADF80E007C
:1025100001A95348FFF795FD012240F2255150488B
:10252000FFF727FE01214E48FFF717FE06B010BD4A
:1025300010B5012810D10CE000BF494B1B8803F0F7
:102540004003002BF9D00B78454C241D2380491CF7
:10255000521E002AF0D124E0022810D10CE000BF66
:10256000404B1B8803F04003002BF9D00B783D4C07
:10257000241D2380491C521E002AF0D111E003289B
:102580000FD10CE000BF384B1B8803F04003002B39
:10259000F9D00B78344C241D2380491C521E002A8C
:1025A000F0D110BD10B5044621462D48FFF742FE7C
:1025B00000BF2B48008800F080000028F9D010BD33
:1025C00070B540F225512648FFF7B8FEF8B124480F
:1025D000FFF734FEC4B27E2C06D1092023490870CF
:1025E00000202349086028E08E2C07D105201F49D0
:1025F000087040F2A2201E4908601EE09E2C07D100
:1026000003201C49087040F272201949086014E048
:10261000FE2C09D11548007800F0FE00134908701F
:1026200000201349086008E0134811490968445420
:102630000F480068401C0E490860104801680E48A9
:1026400000F0FCFEC5B23DB905220D490120FFF79F
:102650006FFF00200649086070BD000000080140BF
:102660000038014000440040004800409401002030
:102670009001002095010020140300209C010020FF
:102680009601002008B535208DF8000000208DF857
:10269000010001208DF802008DF803006846FDF767
:1026A0006EFF08BD10B586B0044601210805FEF78F
:1026B00020FD01213120FEF70FFD4FF48050ADF8D1
:1026C000140018208DF8170002208DF8160005A9B7
:1026D0006648FEF745FA0420ADF814008DF817009F
:1026E00005A96348FEF73CFA01940020ADF8080004
:1026F000ADF80A00ADF80C00ADF810000C20ADF8F4
:102700000E0001A95B48FFF79CFC002240F22771F4
:102710005848FFF72EFD40215648FFF706FE0122DC
:1027200040F225515348FFF724FD01215148FFF79E
:1027300014FDFFF7A7FF06B010BD10B504462146F3
:102740004C48FFF777FD00BF4A48008800F0800042
:102750000028F9D010BD10B500BF4648008800F031
:1027600020000028F9D04348FFF768FDC0B210BD33
:1027700010B5044603E02078FFF7DFFF641C2078E3
:102780000028F8D110BD70B504460D4603E020784E
:10279000FFF7D3FF641C2800A5F10101CDB2F6D1EB
:1027A00070BD10B540F227713248FFF7C7FD20B168
:1027B00040F227712F48FFF7EBFD40F225512D48DD
:1027C000FFF7BCFDC8B12B48FFF738FDC1B22A485E
:1027D00002680068401C284B18602848815418463D
:1027E00000681821B0FBF1F201FB120019460860E5
:1027F00040F225511F48FFF7CBFD20480078A5285F
:1028000003D000201C4908602FE01B480068022804
:102810000BD11A4840785A2827D001201649086061
:1028200016484078154908701FE0134800680828CA
:102830001BD91248407940280AD11048007AC01D9F
:102840000F49086000200C4908600C4908700CE032
:102850000A48C079BB2808D10848007A08490860AE
:102860000020054908600549087010BD00100140AE
:102870000014014000500040A0010020BC050020D1
:10288000A401002000B587B001214FF40470FEF7C9
:1028900023FC4FF40040FEF783FB0120ADF8040059
:1028A00000208DF8070001A92D48FEF759F92D48A1
:1028B000FDF7CEFE002002908DF80C008DF80D0083
:1028C0004FF4602004900020059001208DF818003E
:1028D00002A92448FDF7E3FE01212248FDF70BFF82
:1028E0002048FDF72AFF00BF1E48FDF72BFF0028F8
:1028F000FAD11C48FDF730FF00BF1A48FDF731FF41
:102900000028FAD107B000BD10B504460723012204
:1029100021461448FDF75BFF01211248FDF72BFF0C
:1029200000BF02210F48FEF797F80028F9D00D48A4
:10293000FDF7B4FF10BD2DE9F04107460C46002518
:10294000002608E03846FFF7DFFF05440520FFF7C3
:1029500076FD701CC6B2A642F4DBA8B2BDE8F081D9
:1029600000100140002401407FB505460C460121BE
:102970000220FEF7BEFBADF80850ADF80440002081
:10298000ADF80A00ADF8060001A94248FEF7DCFCEC
:10299000012211463F48FFF74EF81D208DF8000038
:1029A00001208DF8010003208DF8020001208DF830
:1029B00003006846FDF7E3FD01213648FFF720F8E4
:1029C0007FBD7FB505460C4601210846FEF791FB09
:1029D000ADF80850ADF804400020ADF80A00ADF89D
:1029E000060001A94FF08040FEF7AEFC012211461F
:1029F0009007FFF720F81C208DF8000001208DF8CB
:102A0000010004208DF8020001208DF803006846C3
:102A1000FDF7B5FD01218807FEF7F2FF7FBD7FB509
:102A200005460C4601210420FEF763FBADF8085073
:102A3000ADF804400020ADF80A00ADF8060001A989
:102A40001548FEF781FC012211461348FEF7F3FFFB
:102A50001E208DF8000001208DF8010005208DF862
:102A6000020001208DF803006846FDF788FD012172
:102A70000948FEF7C5FF7FBD10B501210548FFF7E6
:102A800088FA30B101210348FFF794FA0120034985
:102A9000087010BD0004004000080040A80100209C
:102AA00038B501211C20FEF717FB40F21F10ADF8CE
:102AB000000010208DF8030003208DF80200694605
:102AC000E948FEF74DF840F2CE70ADF800006946D7
:102AD000E648FEF745F8E020ADF8000048208DF804
:102AE00003006946E048FEF73BF84FF60340ADF8B7
:102AF00000006946DE48FEF733F83020ADF80000EC
:102B00006946DA48FEF72CF84FF48061D748FEF7A3
:102B1000D4F84FF48071D448FEF7D1F84021D3485F
:102B2000FEF7CDF88021D148FEF7C9F84FF4807147
:102B3000CE48FEF7C4F84FF40071CC48FEF7BFF85A
:102B400000240AE0CB4A02EBC4029188C94A52F839
:102B50003400FEF7B2F8601CC4B2082CF2DB38BDBA
:102B60002DE9F04106460027012E72D10025B8E07C
:102B7000C04A02EBC5029188BE4A52F83500FEF702
:102B80009EF800249FE0BC4A02EBC4029188BA4A36
:102B900052F83400FEF777F8002807D13DB9062C2B
:102BA00005DA082000FB04503330C7B289E01DB9B4
:102BB000062C01D1352784E01DB9072C01D1392716
:102BC0007FE0012D07D1062C05DA082000FB045018
:102BD0003330C7B275E0012D03D1062C01D1362761
:102BE0006FE0012D03D1072C01D1382769E0022DB8
:102BF00002D10CB9452764E0022D07D1002C05DD78
:102C0000072C03DA04F13C00C7B25AE0022D03D1CD
:102C1000072C01D1372754E0032D05D1022C03DA0C
:102C200004F14D00C7B24CE0032D03D1022C01D1B9
:102C3000462746E0032D04D1022C02DD601CC7B2FA
:102C40003FE0042D06D1032C04DA04F11100C7B2D1
:102C500037E06CE0042D05D1022C03DD04F10900FE
:102C6000C7B22EE0052D05D1032C03DA04F11900BB
:102C7000C7B226E0052D05D1022C03DD04F11100B9
:102C8000C7B21EE0062D05D1032C03DA04F12100A2
:102C9000C7B216E0062D05D1022C03DD04F11900A0
:102CA000C7B20EE0072D05D1032C03DA04F1290089
:102CB000C7B206E0072D04D1022C02DD04F1210089
:102CC000C7B2601CC4B2082CFFF65DAF694A02EBC4
:102CD000C5029188674A52F83500FDF7EEFF681C7F
:102CE000C5B2082DFFF644AF4FF400616048FDF710
:102CF000CAFF00B92C274FF480515D48FDF7C3FF90
:102D000000B92D274FF400515948FDF7BCFF00B919
:102D10002E274FF480415648FDF7B5FF00B92F2705
:102D20004FF400415248FDF7AEFF00B93027384656
:102D3000BDE8F08170B50546012D40D100240AE0C0
:102D40004C4A02EBC40291884A4A52F83400FDF71B
:102D5000B6FF601CC4B2082CF2DB00240DE0464A2A
:102D600002EBC4029188444A52F83400FDF78BFF0D
:102D700008B9012070BD601CC4B2082CEFDB4FF411
:102D800000613B48FDF77FFFB8B14FF480513848F0
:102D9000FDF779FF88B14FF400513548FDF773FF17
:102DA00058B14FF480413248FDF76DFF28B14FF420
:102DB00000412F48FDF767FF08B90120DAE700203E
:102DC000D8E710B500240120FFF7B4FF002843D056
:102DD0002A48007830B1012809D0022817D00328EA
:102DE00038D11DE0012025490870002010BD1420B5
:102DF000FFF725FB0120FFF79DFF18B102201F49B7
:102E0000087002E000201D4908700020EEE7012054
:102E1000FFF7A6FE04460320184908702046E5E7A0
:102E200017480078401C164908701420FFF707FB6C
:102E30000120FFF795FE044611480078282807D1A5
:102E4000302C05D100200E4908703A242046CDE7E9
:102E50000020CBE70020C9E7002008490870084996
:102E6000087000BFC2E700000008014000100140E8
:102E7000000C01408C020020CC0200200D03002039
:102E80000E03002008B5F7A00068009004216846F2
:102E9000FFF779FC08BD2DE9F04F99B08146F2A10A
:102EA00003C9CDE917011422F1A112A800F094FA88
:102EB000F4A30FCB0EAC0FC4F6A207CA0BAB07C32B
:102EC000F0A3D3E90012D3E90203CDE90903CDE968
:102ED0000712F0A2D2E900109268CDE90502049130
:102EE000EFA2D2E900109268CDE9020201914FF001
:102EF000000AD3460024002500273EE1384607EBB0
:102F0000D0714910A7EB410101EB41018900C1EBF0
:102F1000C10202EB011101F130084FEA18208DF8CF
:102F20004A0008F0FF008DF84B0007EBD7725210F3
:102F3000172303EB4210C21700EB1262120A8DF83E
:102F40004C2007EBD772521003EB4210C21700EB74
:102F500012621212A0EB0222D2B28DF84D2000268E
:102F600006E107EB4700C00000EB4600801C19F8A3
:102F700000008DF8550007EB4700C00000EB46004D
:102F8000C01C19F80000401E00F0010048B90320E1
:102F90008DF85000FF208DF8510000208DF84E0074
:102FA00008E002208DF85000FF208DF8510000202D
:102FB0008DF84E0007EB4700C00000EB4600C01C38
:102FC00019F80000401E4010052878D2DFE800F014
:102FD000032950789F00FF208DF851008DF8520092
:102FE000204604EBD0714910A4EB4101012907D11F
:102FF00004EB461084B2601E84B204F5004084B233
:10300000284605EBD0714910A5EB4101012907D1F4
:1030100005EB461085B2681E85B205F5004085B205
:103020008FE007208DF85100E0208DF852002046F7
:1030300004EBD0714910A4EB4101012907D104EB45
:10304000461084B2601E84B204F5004084B2284663
:1030500005EBD0714910A5EB4101012907D105EB22
:10306000461085B2681E85B205F5004085B268E05D
:1030700034208DF85100FF208DF85200204604EBDB
:10308000D0714910A4EB4101012907D104EB46108E
:1030900084B2601E84B204F5004084B2284605EB79
:1030A000D0714910A5EB4101012907D105EB46106C
:1030B00085B2681E85B205F5004085B241E03FE06B
:1030C00080208DF851001F208DF85200204604EB1F
:1030D000D0714910A4EB4101012907D104EB46103E
:1030E00084B2601E84B204F5004084B2284605EB29
:1030F000D0714910A5EB4101012907D105EB46101C
:1031000085B2681E85B205F5004085B219E0FF2042
:103110008DF848008DF849003CB904EB460084B2B4
:10312000601C84B20120614908700120B0EBE43FCB
:1031300005D125B905EB460085B2681C85B200E0D3
:1031400000BF00BFC6EBC60000EB06104044000AFB
:103150008DF84A00C6EBC60000EB06104044C0B232
:103160008DF84B00122112A8FFF70DFB701CC6B2A0
:103170000C2EFFF6F6AE781CC7B21A2FFFF6BEAEC5
:1031800019B0BDE8F08FF0B585B0064636A103C989
:10319000CDE9030146A207CA8DE807000025C6E075
:1031A000FFF770FE68003530C0B28DF80C000621C4
:1031B00003A8FFF7E8FA284605EBD0714910A5EB04
:1031C000410101EB41018900C1EBC10202EB011198
:1031D00001F1300701208DF80400B7208DF80500BB
:1031E00000249FE005EB4500C00000EB440000F226
:1031F0007220305C8DF80B0005EB4500C00000EB41
:10320000440000F27320305C401E00F0010048B919
:1032100018208DF8080020208DF8090019208DF85D
:10322000060008E018208DF8080020208DF809001D
:1032300018208DF8060005EB4500C00000EB4400A7
:1032400000F27320305C401E4010052852D2DFE8A7
:1032500000F003353C434A00FF208DF800008DF854
:10326000010048E0AACC97820100000C000C00008D
:10327000AA980000000000C102FFFF000000CC334C
:10328000C33C0000AA560D8240020000000000006E
:10329000CC33C33CAA560782400000040001000062
:1032A000AA5607824000000400000000100300201E
:1032B0003FBD0000000019051820003507208DF8DB
:1032C0000000E0208DF8010015E007208DF80000D7
:1032D000FF208DF801000EE0F8208DF800001F207F
:1032E0008DF8010007E07C208DF800000F208DF89C
:1032F000010000E000BF00BFC4EBC40000EB0410FD
:103300003844000A8DF80200C4EBC40000EB04103E
:103310003844C0B28DF803000C216846FFF733FA39
:10332000601CC4B20C2CFFF65DAF681CC5B2022D48
:10333000FFF636AF05B0F0BD1CB504461FA103C9AA
:10334000CDE900018DF8064007216846FFF71BFA1A
:103350001CBD2DE9FF5F04461AA103C9CDE9020196
:10336000012C24D104210A20FFF7E5FA81464FEA17
:10337000891B4FEAEB700BEB10504FEA203A4FEAF3
:10338000EA710AEB9171881000F0A7F907460F4A1D
:103390000F4B00F0B9F9054600220E4B00F0C8F8BB
:1033A000CDE9000100F06CF9C0B28DF80D000621E6
:1033B00002A8FFF7E8F9BDE8FF9F7047AACC048098
:1033C00003000000AACC0380010000009A9999999B
:1033D0009999E93F0000F03F10B5203AC0F00B800A
:1033E000B1E81850203AA0E81850B1E81850A0E809
:1033F0001850BFF4F5AF5FEA027C24BFB1E8185063
:10340000A0E8185044BF18C918C0BDE810405FEAD2
:10341000827C24BF51F8043B40F8043B08BF70474E
:10342000D20728BF31F8023B48BF11F8012B28BF53
:1034300020F8023B48BF00F8012B70474FF0013CD9
:1034400050F8042B51F8043B9A4221D1A2EB0C0313
:10345000934313EACC1317D150F8042B51F8043BD3
:103460009A4215D1A2EB0C03934313EACC130BD170
:1034700050F8042B51F8043B9A4209D1A2EB0C03FB
:10348000934313EACC13DBD04FF00000704700BF2A
:10349000D01A01BAB1FA81F101F0180122FA01F053
:1034A000CB40C1F12001DBB2C0B2C01A2CFA01F34B
:1034B000D11A914311EAC311E6D1704770477047A2
:1034C0007047754600F028F8AE4605006946534639
:1034D00020F00700854618B020B5FDF739F8BDE8A3
:1034E00020404FF000064FF000074FF000084FF06B
:1034F000000B21F00701AC46ACE8C009ACE8C009FC
:10350000ACE8C009ACE8C0098D4670470446AFF38B
:1035100000802046FCF777FE00487047D405002065
:1035200001491820ABBEFEE72600020070470000EC
:1035300010B591EA030F48BF83F0004300F1EA8120
:10354000841A71EB030C05D2121943EB0C03001B18
:1035500061EB0C01DFF824E14FEA1154A4EB135C9A
:103560001EEA430F18BF9EEA445F73D023EA0E039E
:10357000DCF1200E21EA045143F4801332D322FA05
:103580000CFE10EB0E0023FA0CFE41EB0E01CCF109
:10359000200E03FA0EFE10EB0E0051F10001B1F502
:1035A000801FCCF1200E32D201EB045112FA0EF240
:1035B000BDE8104058BF7047401C38BF5FEA420268
:1035C00018BF7047002814BF20F0010041F100012E
:1035D0004FEA410313F5001F38BF7047A1F1C04106
:1035E00000F08AB9012A43EB0302ACF1200CDCF1B4
:1035F0001F0E32BF4FF0000E23FA0CF310EB030046
:1036000041EB0451B4EB115FD0D0A1EB045101F5B3
:10361000801149085FEA300001EB04510ED350F1EC
:10362000000038BF12FA0EFE08D1BDE81040C9E70D
:10363000401C38BF5FEA4202CAD1C3E7BDE8104070
:103640004FEA410313F5001F38BF7047A1F1C04195
:1036500000F052B99EEA445F08D011EA5E0FBDE85F
:10366000104004BF01F0004100207047BDE8104049
:1036700070B500F0F3F800BF64FBBE3E0000E0FF51
:103680004FEA1153A3F58063D3F11E03A8BFD3F112
:10369000200C08DB4FF0004242EAC12252EA5052AD
:1036A00032FA03F0704709420BD4102BC4BF00203C
:1036B000704703F5787CBCF1FF3F05D04FF0FF3039
:1036C00070474FF00000704770B500F0C7F800BFBA
:1036D0004992248000207047F0E710F0004248BF74
:1036E0004042B0FA80F310FA03F10AD0C3F11D038F
:1036F00003F580634FEA415002EB035202EBD12104
:1037000070474FF000007047DFF848C170B51CEA01
:10371000111E1EBF1CEA13159EEA0C0F95EA0C0F32
:1037200000F06F8081EA030423EA4C134EEAD47E52
:1037300021EA4C1141F4801143F48013AE44A1FB03
:10374000024CA0FB0365AEF17F7E361955EB0C05EC
:10375000A1FB034C4CF10003A0FB021C16EB0C0672
:10376000654153F10003094218BF46F0010613F406
:10377000007F0BD14FEA03314FEA0530340341EAB1
:10378000155140EA16506FF003020AE04FEAC321D8
:103790004FEAC520F40241EA555140EA56506FF015
:1037A000020202EB2E4201EB025585EACE710AD0ED
:1037B0005FEA440C18BF24F0004450F1000041F1CE
:1037C000000120EAD47040F2FE7C624500D270BD58
:1037D000A84214BF4FF080444FF04044002E08BF71
:1037E0000024BEF1806FA8BFA1F1C041BDE87040C8
:1037F00080F282804FF0000001F1C04101F00041F1
:1038000070479EEA0C0F0CEA131518BF95EA0C0FCF
:1038100006D04FF0000081EA030E0EF0004170BDAB
:1038200000F01CF88900013E00F007B800F009B86C
:103830004FEA430C5FEA5C5C08D081EA030100F0C8
:103840005BB84FEA410C5FEA5C5CF6D14FF00000D8
:10385000014970470000FF070000F87F0EF1020EDB
:103860002EF0030E5EF8046B364205D4012A43EBBA
:10387000030515F5001F12D8012841EB010C1CF5BA
:10388000001F0CD80ED14FEAD17C15F5001F0CEBB0
:103890004C0C0CF1020C08BF4CEBD37C04E04FF055
:1038A000080C01E04FEAD37C0CEB4C0526FA05F638
:1038B00006F00706B6F1040C06D20EEB860CBDE846
:1038C00070404CF0010C6047DFE80CF0090B02027D
:1038D0004FF000414FF00000A1F5002170BD1946E6
:1038E0001046012851EB010418BFD4F5001484BF21
:1038F000002001F0004170BD0808A0F500114FEA5A
:103900003101704710B591EA030F48BF83F00043BF
:103910003FF516AE841A71EB030C07D212198CF026
:10392000004C43EB0C03001B61EB0C01DFF8A4E13E
:103930004FEA1154A4EB135C1EEA430F18BF9EEA32
:10394000445F00F0B08023EA6E03524221EA045142
:10395000C3EB6E0338BF5B1EDCF1200E25D322FAC9
:103960000CFE10EB0E0043FA0CFE41EB0E01CCF105
:10397000200E03FA0EFE10EB0E0051F10001CCF107
:10398000200E29D412FA0EF201EB0451BDE81040CA
:1039900058BF7047401C1CBFB2F1004F7047002851
:1039A0000CBF491C20F00100704712EB020E43EBE4
:1039B000030218BF4FF0010E4EEA4202ACF1200C98
:1039C000DCF11E0E54D943FA0CFE10EB0E0051F13F
:1039D000FF31CCF11E0ED5D50EF1010E12FA0EFEFE
:1039E000404141EB010101EB445C5FEA5C5C10D9B2
:1039F00010EBDE7001EB045138BFBEF1004FBDE8A3
:103A0000104018BF704700280CBF491C20F001006F
:103A1000704730D24FEAD42C11F5001124F4006421
:103A20001BD0B1FA81F20B3AA41AA41ED2F12003E2
:103A3000914030FA03F31943904001EBCC71002C14
:103A400001EB0451BDE81040A8BF704701F1C0412F
:103A50004FF0000001F000417047B0FA80F310FA17
:103A600003F100D110BDE41A173C4805C90AE4E788
:103A700001EB045110BD491001EB0451BDE81040A9
:103A80004FEA300002E04FF0000170474A0008BFE3
:103A90000042F8D0B2F5001F28BF704701F0004186
:103AA0004FF0000070479EEA445F07D011EA5E0FB6
:103AB000BDE8104004BF002100207047BDE8104061
:103AC00070B5FFF7CBFE00BF40DFF63E83F000414C
:103AD000104670470000E0FF5035463520545146EF
:103AE00035204D494635204344463520503746352C
:103AF0002050354635205038463520504546352033
:103B000057484635204342463520414C4635000053
:103B1000303B000800000020140300006C01000886
:103B2000D43B00081403002024090000D001000841
:103B30003009000C014000040000085220085280A7
:103B4000085240185208201210202004100140177B
:103B50002108430001302107210852021862802009
:103B6000520208520408214820040801406F21082D
:103B7000520808521008522008524008614852105A
:103B8000585220105201186170520428615052019D
:103B900060022A0228013E98E5086558252433A2D0
:103BA0004A5B2177600901020304060708090C61DA
:103BB0001070050204060824700B0143444630309F
:103BC00000D83A0014A2005405FFAC0555AC5101D1
:043BD00000000000F1
:0400000508000535B5
:00000001FF
